:020000040800F2
:1000000040EB002035920008091800080B18000882
:100010000D1800080F180008111800080000000053
:10002000000000000000000000000000131800089D
:1000300015180008000000005B0803080190000884
:100040004F9200084F9200084F920008678E0008F8
:100050004F9200084F9200084F9200084F920008FC
:100060004F9200084F9200084F9200084F920008EC
:100070004F9200084F9200084F9200084F920008DC
:100080004F9200084F9200084F9200084F920008CC
:10009000B1AB02084F9200084F9200084F9200083F
:1000A0004F9200084F9200084F9200084F920008AC
:1000B0004F920008E76E00084F9200084F92000828
:1000C0004F9200084F9200084F9200084F9200088C
:1000D0004F920008C59100084F9200084F92000807
:1000E0004F9200084F92000899AB02084F92000807
:1000F0004F9200084F9200084F9200084F9200085C
:100100004F920008A58400084F9200084F92000803
:100110004F9200084F920008596F00084F92000854
:100120004F9200084F9200084F9200084F9200082B
:1001300000F002F800F076F80AA090E8000C824483
:100140008344AAF10107DA4501D100F06BF8AFF260
:10015000090EBAE80F0013F0010F18BFFB1A43F0A5
:1001600001031847741B0500941B05000A444FF057
:10017000000C10F8013B13F0070408BF10F8014B06
:100180001D1108BF10F8015B641E05D010F8016B4B
:10019000641E01F8016BF9D113F0080F1EBF10F8AF
:1001A000014BAD1C0C1B09D16D1E58BF01F801CBD2
:1001B000FAD505E014F8016B01F8016B6D1EF9D555
:1001C0009142D6D37047000000230024002500266A
:1001D000103A28BF78C1FBD8520728BF30C148BFAA
:1001E0000B607047652936F07C8764292EF05883B0
:1001F00078292EF0918373292FF0738000207047A7
:100200001FB52FF007F904000020002135F01EFC77
:10021000401C60600020002135F002FCE0601FBD42
:1002200010B510BD2FF022FA1146FFF7E9FF01F0DB
:100230009DF92FF09BFC03B4FFF7F2FF03BC08F01D
:1002400069FF000080F30888704700002DE9FE4F29
:100250008246F9A0CDE9002015464819002483B252
:10026000FB48ADF808408B46028827462646504694
:1002700005F086FD4FF400280222214602A805F071
:1002800029FEBDF8080004F58064401CADF80800A4
:1002900040468442F0D3002481466808ADF80870D7
:1002A000B846C0EB001000EB0A070222214602A864
:1002B00005F01CFEBDF80800CDE90058801B401C6D
:1002C00082B2B8B20423594605F019FD04F58064E2
:1002D0004C45EAD3CDE90058A20AB8B204235946E6
:1002E00005F00DFD0020BDE8FE8F2DE9FF4F8A4689
:1002F000D84983B01C464FF47840D54FDFF8588377
:10030000164608804FF000094FF4C87B0AEB04053D
:10031000CDE900467B883A885146039805F030FDC8
:10032000584608F0C0FECDF80090ABB23A8851466E
:10033000039805F018FB642008F0B5FED8F8980182
:10034000414618B10020C1F89801E1E70120FAE721
:100350002DE9F74FDFF8FCA282B04FF47841AAF8FC
:100360000010BEA0BA4FCDE9002015467B883A8820
:10037000DDE90201002405F003FD0398DFF8D882CF
:100380004FF0010BA1464619641CE4B2142C02D0B4
:10039000282C0AD019E0B7A0CDE900507B883A8814
:1003A000B1B2029805F0ECFC0FE0CDF800903A886D
:1003B000B1B22B4602980DF0C9F8D8F89801002484
:1003C000414668B10020C1F89801002001F017FBF8
:1003D000012807D0032817D00A2008F064FED3E7CD
:1003E0000120F0E7CDF800903A88DDE902016B00CA
:1003F0000DF0ACF84FF6FF71AAF80010C8F898B1EC
:10040000002005B0BDE8F08FC8F898B19EA0CDE9F6
:1004100000507B883A88B1B2029805F0B1FC08F030
:100420004DFA9FA0CDE900507B883A88B1B202987E
:1004300005F0A6FC4FF4167008F035FE0120E0E749
:100440002DE9F74FDFF80CB282B04FF47841ABF8EA
:10045000001099A07E4FCDE9002015467B883A8890
:10046000DDE902010024A24605F08AFC0398DFF8CA
:10047000E881A1464619641CE4B2142C02D0282C51
:100480000AD019E07BA0CDE900507B883A88B1B250
:10049000029805F075FC0FE0CDF800903A88B1B2F3
:1004A0002B4602980DF052F8D8F8980100244146E6
:1004B00068B10020C1F89801002001F0A0FA0128DD
:1004C00009D0032805D00A2008F0EDFDD3E701206C
:1004D000F0E74FF0010A0121C8F89811CDF800901B
:1004E0003A88DDE902016B000DF030F84FF6FF713C
:1004F000ABF80010504684E72DE9F74F55488A467F
:1005000086B04FF4784101806FA0CDE900205048BB
:100510000025144643880288A9462E46A846AB46C5
:100520005146069805F02CFC0AEB04076D1CEDB251
:10053000142D02D0282D0BD01CE06BA0CDE900407B
:100540004348B9B243880288069805F019FC11E0C7
:10055000002000903E48B9B22346028806980CF06D
:10056000F5FF3D490025D1F89801002861D0002011
:10057000C1F898010A2008F096FD002001F03FFA2A
:10058000012803D00228D1D14FF0010900200090AA
:10059000600002902E485146029B028806980CF09B
:1005A000D5FFB9F1000F45D054A0CDE9004028484F
:1005B000514643880288069805F0E2FB4FF4007527
:1005C00028460CF0B4FE5649086040200CF0AFFEFF
:1005D0005449086000202AF046FB4FF42F7008F0C1
:1005E00062FD01202AF03FFB4F49002002460870BF
:1005F0004E484FF44001C0E900124D4805604812D2
:100600004C4908602AF0FCFA2AF0DBFA29F022FEB5
:100610000AEB840004900AEB4400002504EB440933
:1006200003906D1CEDB2052008F03DFD282D02D091
:100630009DE081E0FBE081E04578204D656D6F72C3
:100640007920546573743A202020304B420000001A
:10065000A41E002016000020008023424572617312
:100660006520616C6C2073797374656D2066696CAC
:1006700065733F004B4559303A4E4F202F204B4574
:1006800059323A594553000045726173696E6720CB
:1006900053504920464C4153482E2E2E0000000056
:1006A00045726173696E672053504920464C41532F
:1006B00048204F4B0000000055706461746520664F
:1006C0006F6E743F00000000557365205553422043
:1006D0005570646174652053504920464C4153481D
:1006E0002046696C65733F004B4559303A4E4F20A8
:1006F0002F204B4559313A5945530000506C6561E4
:100700007365207075736820555342206361626C75
:100710006520746F205553425F534C41564500008D
:10072000EC02002094030020F803002058E0002091
:10073000C8020020D0020020012019E7FE48002551
:100740000178C90602D50026052204E0761CF6B21F
:100750000A2E02D90022F9490A6000210170F849E5
:10076000D1F89801002877D00020C1F89801F2490B
:1007700009788B4522D000200090F2482346028859
:10078000049881B206980CF0E1FEDFF8ACB39BF858
:100790000000C00710D0ECA0CDE90040E948438834
:1007A0000288049881B2069805F0EAFA9BF80010D6
:1007B00001F0FD018BF800109BF800B0DF490968DB
:1007C00088451ED0DD480068052847D0E2A0CDE965
:1007D0000040DFF87083B9B20698B8F80230B8F874
:1007E000002005F0CDFA0020009003984B4681B21E
:1007F000B8F8002006980CF0A9FED048006800F078
:10080000FF08CE48006805287FF40BAF002001F0F8
:10081000F6F80128F8D1814600202AF024FAD348BE
:1008200000680CF07DFDD24800680CF079FDC448EA
:100830000121C0F8981100200090C2485146029B47
:10084000028806980CF082FECA484FF6FF710180BC
:10085000484609B0D6E5FFE7012086E7C6A0CDE906
:100860000040DFF8E082B9B20698B8F80230B8F874
:10087000002005F085FAC5A0CDE900400398B8F83E
:10088000023081B2B8F80020069805F079FAC8A0C5
:10089000CDE9004009EB0A0081B2B8F80230B8F89F
:1008A0000020069805F06CFAA7E72DE9F04F89B013
:1008B0004FF0A2094FF4E13008F036FC08F0AEFB2F
:1008C00001F056F801F078FD08F036F801F06CF808
:1008D00005F08AFA05F04EFC07F0B5FE002008F09E
:1008E000D7FC012008F0D4FCBA48006880470CF01F
:1008F000DDF928F0DEF808F096F826F0C1F91F219E
:10090000002008F068FD0690002001F01EFD9949C6
:100910004FF6FF708B4E0880AF494FF0000802255C
:10092000A1F8008030884746F02806D0B0F5A07FB7
:100930000ED0B0F5F07F16D026E00C244FF0120A4E
:100940004FF0BE0942464FF6E071A448182314E068
:1009500010244FF0180A4FF0FA0942464FF6E071A2
:100960009F48202309E018249E484FF0240A4FF4A2
:10097000B97942464FF6E07130238DE807005246C0
:100980002946052010F09FFA97A0CDE9004004FB0E
:1009900007506C4E81B20AF10A0001277388328831
:1009A000834605F0EDF997A0CDE9004004FB075020
:1009B00081B2022773883288584605F0E1F9022295
:1009C000212103A811F08DFA94A106982EF07EF84B
:1009D00003A906982EF008F993A106982EF004F9C1
:1009E0000322C82103A811F07CFA03A906982EF06F
:1009F000FBF806984FF0030BCDE9004004FB0770AD
:100A000081B273883288052005F0BAF9B28889A1CD
:100A100003A82DF0E1FE03A8CDE9004004FB0B7014
:100A200081B273883288052005F0AAF94448C0F8DD
:100A30009881C0F89C8182A0CDE90040042004FB8D
:100A4000007081B24FF0050873883288404605F087
:100A500097F981A0CDE9004004FB087081B24FF006
:100A6000060873883288052005F08AF9062004FB01
:100A70000076B1B222460520FFF7E8FB28B104FB5F
:100A8000085081B223467AA23BE27EA0CDE9004025
:100A9000DFF8B080B1B209F105060727B8F80230D7
:100AA000B8F80020B0B205F06BF9012008F0F0FBB7
:100AB00023480121C0F89811C0F89C1107F0A4FD4B
:100AC000A0F56F41173905D004FB075081B22346CA
:100AD0006DA2EFE371A0CDE9004004FB0757B8F821
:100AE0000230B8F80020B9B2052005F049F900201D
:100AF000CDE900404FEA540B0BEBCB00B9B2052314
:100B00004FF48042401D05F0FAF85EA0CDE90040A8
:100B1000B9B20827B8F80230B8F80020B0B205F032
:100B20002FF9012000F06BFF032803D104FB0750CD
:100B300081B2BDE0C3E00000D90200208C04002097
:100B400000802342A41E002055534220577269742E
:100B5000696E672E2E2E0000555342204469734360
:100B60006F6E6E656374656420000000EC02002007
:100B7000940300201600002055534220436F6E6EF0
:100B8000656374656420202000000000436F707965
:100B90002053595354454D20666F6C646572207420
:100BA0006F20414C49454E54454B204469736B00BE
:100BB0005768656E2046696C6520436F70792066C2
:100BC000696E6973686564205072657373204B4564
:100BD00059302100200000201800002024F40308D0
:100BE0006CF40308CCF40308414C49454E54454B82
:100BF0002053544D33324631205761725368697027
:100C000020563300436F70797269676874202843F7
:100C10002920323031352D323032350048415244AE
:100C2000574152453A0000002C20534F465457413B
:100C300052453A004C43442049443A253034580048
:100C40004350553A53544D3332463130335A45545C
:100C5000362037324D687A00464C4153483A353198
:100C6000324B422020205352414D3A36344B420001
:100C70004558204D656D6F7279204572726F7221F3
:100C8000000000004F4B0000457820466C617368FF
:100C9000204572726F7221210000000045782046C5
:100CA0006C6173683A20202020204B420000000035
:100CB00022460520FFF74CFB00287FF425AEFDA05F
:100CC000CDE9004004FB0757B8F80230B8F800201F
:100CD000B9B2052005F054F808F059F830B10920F0
:100CE00004FB005081B22346F6A2E3E207F087FF3F
:100CF000AFF27000B9B2CDE90040F54FB0B27B88D9
:100D00003A8805F03DF8F3A0CDE90040092004FB46
:100D100000587B883A881FFA88F1052005F030F8E2
:100D2000F0480122F0A1006824F03AFAED480122CF
:100D3000EEA1406824F034FAAFF2B800CDE90040EB
:100D40001FFA88F14FF00A087B883A88B0B205F0A4
:100D500017F8E7A0CDE900400A2004FB005081B25B
:100D60007B883A88052005F00BF800277F1CBFB26E
:100D700008AA07A9DCA025F0FEFF0090C82008F013
:100D800092F90098A0B3052FF0D30022DCA7002031
:100D9000CDE9004004FB085081B20523029003EB2B
:100DA000CB0004F0ACFF0298CDE9004781B2C848FF
:100DB00008F1010743880288B0B204F0E1FF4FF068
:100DC000000808F101001FFA80F808AA07A9C7A0C7
:100DD00025F0D1FF0090C82008F065F900980028A0
:100DE00045D0B8F1140FECD300980D280DD036E0A3
:100DF000FFE7C54830F8011F41F001010180079865
:100E0000C0F38F22AFF28417C1E7C0A0CDE9004044
:100E1000AF4804FB0758438802881FFA88F1052071
:100E200004F0AEFF4FF480520121B0A025F0B8F9D4
:100E3000B0B9BDA025F0FFF8AFF2B810CDE9004081
:100E4000A3481FFA88F17F1C43880288B0B204F0DF
:100E500097FF08AA07A9A5A025F08DFF009030B143
:100E60007F1C04FB075081B22346B2A222E2A648AF
:100E7000DFF85C8230F8011F41F002010180B2A06E
:100E8000CDE9004004FB0750B8F80230B8F8002064
:100E900081B20290052004F073FF07980BEB4B031F
:100EA00082B20020CDE90040029881B203EBCB0072
:100EB0000523401D04F023FFAFF23820CDE90040A8
:100EC0000298B8F8023081B2B8F80020B0B27F1CA6
:100ED00004F056FFA1A0CDE90040B8F80230B8F800
:100EE000002004FB07581FFA88F1052004F048FF92
:100EF00005F0ABF930B17F1C04FB075081B22346EB
:100F00009AA2D7E1AFF284201FFA88F1CDE9004020
:100F1000DFF8BC81B0B27F1CB8F80230B8F800200E
:100F200004F02EFF95A0CDE90040B8F80230B8F8E3
:100F3000002004FB07581FFA88F1052004F020FF69
:100F4000012000F05CFD022805D00020009026F072
:100F500072FB60B908E0781C04FB005081B22246A5
:100F60000520FFF76DFAF1E70098012839D11FFA43
:100F700088F15DA32246052026F013FAC8B11FFAB6
:100F800088F15AA32246052026F00BFA88B1781C76
:100F900004FB005081B222460520FFF7ADFA00287D
:100FA0007FF4B2AC7F1C04FB075081B2234677A2CA
:100FB00080E100200090781C04FB005083B244487C
:100FC0001FFA88F10288052004F0CDFC6BA0CDE962
:100FD00000403F481FFA88F143880288052004F04A
:100FE000CFFEAFF260301FFA88F107F10108CDE9BA
:100FF0000040374FB0B27B883A8804F0C1FE66A04B
:10100000CDE900407B883A8804FB0857B9B2052037
:1010100004F0B6FE66A010F0BEFC002849D06420A3
:1010200008F041F80020009008F1010004FB005096
:1010300083B202902648B9B20288052004F093FCDE
:101040005CA0CDE900404FEACB02B9B223460520AF
:1010500004F096FEB9B22246052010F0A3FE58A077
:1010600010F099FC78B10298224681B20520FFF772
:1010700043FA002894D108F1010004FB005081B22A
:10108000234650A216E1002000900298DFF840B0FD
:1010900083B2B9B2BBF80020052004F064FC3EA086
:1010A000CDE90040BBF80230BBF80020B9B2052002
:1010B00092E0A0E052544320436865636B2E2E2ECD
:1010C00000000000525443204572726F72210000EC
:1010D000A41E0020464154465320436865636B2E8E
:1010E0002E2E00008C020020303A0000313A000021
:1010F000534420436172643A20202020204D420056
:101100004552524F5200000080BE0020466C617371
:1011100068204469736B20466F726D617474696EE8
:10112000672E2E2E00000000313A414C49454E54A6
:10113000454B0000466C617368204661742045721F
:10114000726F722100000000466C61736820446970
:10115000736B3A20202020204B4200003234433071
:101160003220436865636B2E2E2E000032344330EC
:1011700032204572726F722100000000466F6E745B
:1011800020436865636B2E2E2E000000466F6E7440
:10119000204572726F72210053595354454D2046B9
:1011A000696C657320436865636B2E2E2E0000000A
:1011B000300000005570646174696E6700000000C3
:1011C0003100000053595354454D2046696C652049
:1011D0004572726F7221000004F0D2FDAFF2200060
:1011E00010F0D9FB38B108F1010004FB005081B2C6
:1011F0002346F9A25EE0AFF27450B9B208F10107DC
:10120000CDE90040DFF8E483B0B2B8F80230B8F8B6
:10121000002004F0B5FDF6A0CDE9004004FB075026
:1012200081B2B8F80230B8F80020052004F0A8FD1B
:10123000012000F0E4FB804605F0BCFD38B1B8F1B8
:10124000010F7FF461AB05F019FBFFF75DBBB8F14F
:10125000010F04D1EA4890F830000006F3D5AFF250
:10126000DC50CDE9004004FB0750DFF880A381B2D9
:1012700009F10500D046BAF80230BAF8002080B271
:101280007F1C04F07DFDDFA0CDE90040B8F80230FE
:10129000B8F8002004FB07581FFA88F1052004F075
:1012A0006FFD10F05CFE40B17F1C04FB075081B263
:1012B0002346DBA20520FFF718F8AFF23860CDE92E
:1012C00000401FFA88F107F101085746BAF80230CA
:1012D000BAF80020B0B204F053FDD7A0CDE9004029
:1012E00004FB085081B27B883A88052004F048FD51
:1012F000D64C0120C4F8A001642004F5D07407F096
:10130000D2FE00202060069908F05CF809B0BDE824
:10131000F08F0EB5CE4C02AD08264FF4FA77D4F814
:10132000980158B10020C4F898010022CDE9006569
:101330003B461146104622F002F9F0E70120F2E7A1
:101340000EB50125C34EC44C00270DF108084FF01F
:101350000809002000F053FB042803D135702078E1
:1013600000B127700022CDE90098052311461046F0
:1013700022F0E5F8EDE70EB500240EF0F6FE0FF0D2
:101380001BFA002007F0B6FBB2490020B34D0870ED
:10139000082602AF4FF4FA780FF083FB13285BD2D4
:1013A000DFE800F00A1016181C22282E343A3C3EC2
:1013B0004046484A50525800A9A02DF001FA12F0B8
:1013C0000BFD4BE0AAA02DF0FBF913F085FF45E0E3
:1013D000ACA000E0AFA02DF0F3F93FE0B2A02DF0FB
:1013E000EFF913F076FD39E0B4A02DF0E9F912F031
:1013F000A4F933E0B6A02DF0E3F914F0CCFB2DE016
:10140000B7A02DF0DDF915F003FE27E0B9A02DF00F
:10141000D7F916F0EEF821E0BAA0DCE7BDA0DAE7D4
:10142000C1A0D8E7C5A02DF0CBF914F013F915E051
:10143000C6A0D0E7C9A0CEE7CDA02DF0C1F915F028
:1014400018F90BE0CEA0C6E7D1A02DF0B9F916F03F
:1014500025FC03E0D2A0BEE7FF2801D00FF0ACF9D5
:10146000A88918B9E88908B90FF0A6F90022052360
:1014700011461046CDE9006722F061F8641CA4B261
:10148000444589D1002420460FF0D0F884E72DE9A7
:10149000F0438BB022F091FD09A820F00EFD012150
:1014A00009AA08461EF0CDF822F05CFEC04D29784E
:1014B000491C297022F05AFE00240327CDE9064773
:1014C00009AE4FF4806066210896CDE90210B94A52
:1014D00005940620CDE9000204942346AFF2691278
:1014E000B448B5A1C43820F07EFFCDE906470420FA
:1014F0004FF00C09B44A089605948DE805024FF0A8
:1015000080080023AFF2C712AF48CDE90384AFA132
:10151000C43820F068FFCDE906470520AE4A08969A
:1015200005948DE805020023AFF21922AA48CDE9FF
:101530000384AAA1C43820F056FF09A9AA4821F0C3
:101540004CFD22F00FFE2978491E11F0FF01297091
:1015500009D1A649098831B122F008FE1EF0EAFB44
:101560000BB0BDE8F08322F001FEF9E78AB0FFF787
:101570009CF909A81DF0F7FE22F0F4FD8C4C2178AF
:10158000491C217022F0F2FD002006AB09AA0321BC
:10159000059083E8070080220C23CDE90232924DAA
:1015A0000490C4350346AFF21912CDE9001590A19D
:1015B0008D4820F018FF22F0D5FD2178491E11F04A
:1015C000FF01217007D18949098821B122F0CEFDA0
:1015D0001EF0B0FB14E111E153595354454D204620
:1015E000696C65204C6F737421000000A41E0020FC
:1015F000546F75636820436865636B2E2E2E000060
:101600002000002053595354454D20506172616DA4
:1016100065746572204C6F61642E2E2E00000000F0
:10162000506172616D65746572204C6F6164204514
:1016300072726F722100000053595354454D20536C
:1016400074617274696E672E2E2E00000080214234
:1016500000802342DC0000209C0200209EBE00206F
:1016600065626F6F6B5F706C617928293B0D0A00B2
:101670007069637669657765725F706C6179282936
:101680003B0D0A00617564696F5F706C6179282990
:101690003B0D0A00746F6D6361745F706C61792833
:1016A000293B0D0A0000000063616C656E64617285
:1016B0005F706C617928293B0D0A000073797373A0
:1016C00065745F706C617928293B0D0A0000000089
:1016D0006E65735F706C617928293B0D0A0000000C
:1016E0006E6F74657061645F706C617928293B0D61
:1016F0000A0000006578655F706C617928293B0DF0
:101700000A0000007061696E745F706C617928294D
:101710003B0D0A0063616D6572615F706C617928D1
:10172000293B0D0A000000007265636F72646572E8
:101730005F706C617928293B0D0A00007573625F48
:10174000706C617928293B0D0A0000006E65745F9A
:10175000706C617928293B0D0A0000007769726579
:101760006C6573735F706C617928293B0D0A00000A
:1017700063616C635F706C617928293B0D0A00001E
:1017800070686F6E655F706C617928293B0D0A0087
:101790006170705F706C617928293B0D0A00000050
:1017A000736D735F706C617928293B0D0A0000002E
:1017B00008020020A40E0020456D77696E64656DF7
:1017C0006F207461736B00001C090020546F7563F7
:1017D00068207461736B0000E00B00204C6564307E
:1017E000207461736B00000094050020CC01002080
:1017F0007374617274207461736B000022F0B6FC24
:1018000009A81DF0DCFFFEE77047FEE7FEE7FEE7F4
:10181000FEE77047704700000CB500224C4800926C
:101820000192016841F4803101604FF4A0630168C6
:1018300001F4003101910099491C0091019911B9FD
:1018400000999942F3D10168890333D501210191AF
:1018500040490A6842F010020A600A6822F0030256
:101860000A600A6842F002020A6041684160416809
:101870004160416841F480614160416821F47C111C
:101880004160416841F4E8114160016841F08071B4
:10189000016001688901FCD5416821F003014160C4
:1018A000416841F0020141604168C1F381010229B0
:1018B000FAD10CBD01920CBD254810B5016841F06C
:1018C000010101604168244A114041600168234AD6
:1018D00011400160016821F480210160416821F418
:1018E000FE0141604FF41F018160FFF795FF1C4925
:1018F0004FF00060086010BD154A10B55068194BD4
:1019000010F00C01184803D0042901D0082901D097
:10191000036012E05168536801F470114FF0020443
:1019200013F4803F04EB914102D053689B0301D52F
:101930000E4B00E00B4B5943016051680A4AC1F35A
:101940000311121D515C0268CA40026010BD000004
:1019500000100240002002400000FFF8FFFFF6FEEA
:1019600008ED00E000127A000000002000093D00B0
:1019700038B50121802008F030FA4FF47074ADF8CA
:10198000004010208DF803000320064D8DF8020062
:101990006946284608F039F82146284608F09FF89D
:1019A00038BD0000001C014038B50121342008F08A
:1019B00014FA4FF40050ADF8000003208DF8020037
:1019C00048208DF8030069463F4808F01EF80820BB
:1019D000ADF8000069463D4808F017F84FF48070F4
:1019E0003B4CADF800006946204608F00EF8012196
:1019F000ADF800106946204608F007F838BD2DE91B
:101A0000F0470126334CDFF8C080DFF8C0A0304D2E
:101A100077034FF4807908B1267001E0207898B1FF
:101A20003946404608F047F8A8B14946284608F02C
:101A300042F880B10821504608F03DF858B1012124
:101A4000284608F038F830B13946404608F033F8F7
:101A5000012823D035E00A2007F025FB0020207064
:101A60003946404608F027F878B14946284608F03C
:101A700022F868B10821504608F01DF850B1012144
:101A8000284608F018F838B11BE00120BDE8F087BF
:101A90000220FBE70320F9E70420F7E74946284640
:101AA00008F009F801280CD10821504608F003F885
:101AB000012806D10121284607F0FDFF012800D1A9
:101AC00026700020E2E700000010014000140140F1
:101AD000000801401400002001B5BDF80000ADF879
:101AE0000000BDF800004FF0D841088008BD01B5E6
:101AF000BDF80000ADF80000BDF800004FF0D8417F
:101B0000488008BD08B54FF0D8404088ADF80000C7
:101B1000BDF8000008BD03B5BDF800104FF0D84077
:101B20000180BDF8041041800CBD01B5BDF8000076
:101B3000FFF7D2FF052007F097FABDE80840E1E77C
:101B4000F6484FF0D8410089088070474FF0D841DF
:101B500048807047C0F34511C20AC00200EB411033
:101B6000104480B27047401EC0B2FCD27047F0B53E
:101B7000EA4E0C460246050AB1883046A1F51343E9
:101B800040894FEA142C413B15D0A1F5A643103BE8
:101B900011D0B646B3793688A1F5D047B61A761E6D
:101BA000043F12D07746A1F5A04EBEF5A26E1FD01D
:101BB000012B39D039E0FFF78FFF2846FFF797FF59
:101BC000D0B2FFF794FFB0890CE07546012B00D12D
:101BD000B2B2FFF781FF100AFFF789FFD0B2FFF71B
:101BE00086FFA889FFF778FF6046FFF780FF17E0C0
:101BF000FFF772FF2846FFF77AFF7889401C80B212
:101C0000FFF76AFFD0B2FFF772FFB889FFF764FFF2
:101C10006046FFF76CFFB889401C80B2FFF75CFF9D
:101C2000E0B2BDE8F04062E7B2B21146FFF773FFE1
:101C3000B8892146BDE8F0406DE77FB50022ADF8D8
:101C40000020ADF80420ADF80820B44D2A88824267
:101C500002D96A888A4202D8002004B070BDFFF71A
:101C600086FFA88849F2413645F2103245F21054F9
:101C7000B04205D0A0F5D041043901D0904201D145
:101C80002E2005E0A04202D14FF4385000E022207F
:101C9000FFF722FFA888A0F51341203903D10220C5
:101CA000401EC0B2FCD24FF0D8404088ADF80C00C6
:101CB000BDF80C000220401EC0B2FCD2FFF722FF8C
:101CC000ADF80000A888B04203D0904201D0A042F5
:101CD00014D10220401EC0B2FCD2FFF713FFADF8B2
:101CE0000800BDF80000C0B2ADF80400BDF8040063
:101CF0004FF6FF7101EA0020ADF80400A888A0F5B6
:101D00001341253924D0A0F58A41353920D0091D49
:101D10001ED0A0F5354105391AD0B1F5805117D044
:101D2000A0F50941893913D0B04203D0904201D0C7
:101D3000A04210D1BDF80000BDF804106FF30A00F6
:101D4000890A40EA4110BDF8081040EAD12084E732
:101D5000BDF8000081E7BDF8000004B0BDE87040A8
:101D6000F8E66E488088A0F5134141390ED0A0F501
:101D7000D04104390AD0A0F5A641103906D0B1F5FA
:101D8000007105D040F273110720C4E6292001E05C
:101D90004FF42450A0E661488088A0F513414139F2
:101DA0000DD0A0F5D041043909D0A0F5A6411039D5
:101DB00005D0B1F5007104D000210720ABE6282042
:101DC00001E04FF4205087E6F0B5544D0024294639
:101DD000AB79898846F60402012B18D1914216D0BE
:101DE000082814D2DFE800F00406080A0C0E1012CE
:101DF00006200CE007200AE0042008E0052006E0A9
:101E0000012004E0002002E0032000E00220A1F510
:101E1000134745F2103345F21056413F05D0914229
:101E200003D0994201D0B14277D1082812D2DFE81D
:101E300000F0110406080A0C0E1080240AE0402469
:101E400008E0C02406E0202404E0602402E0A0248E
:101E500000E0E024B14202D14FF4585000E03620B7
:101E6000994203D0B14201D044F00804914201D11B
:101E700044F002042146FFF74EFEA0062888698838
:101E800002D5884202D303E0884201D929806880C4
:101E9000A888B042688943D1FFF71EFE0020FFF7F3
:101EA00026FE6889401C80B2FFF716FE0020FFF76F
:101EB0001EFE6889801C80B2FFF70EFE2888401E37
:101EC000C0F30F20FFF713FE6889C01C80B2FFF734
:101ED00003FE2878401EC0B2FFF709FEA889FFF76D
:101EE000FBFD0020FFF703FEA889401C80B2FFF72E
:101EF000F3FD0020FFF7FBFDA889801C80B2FFF7EF
:101F0000EBFD6888401EC0F30F20FFF7F0FDA889A5
:101F1000C01C80B2FFF7E0FD24E029E0A41E0020F1
:101F2000FFF7DAFD0020FFF7E2FD0020FFF7DFFDFD
:101F30002888401EC0F30F20FFF7D9FD2878401EE7
:101F4000C0B2FFF7D4FDA889FFF7C6FD0020FFF758
:101F5000CEFD0020FFF7CBFD6888401EC0F30F20A8
:101F6000FFF7C5FDA878BDE8F040401EC0B2BEE551
:101F7000082812D2DFE800F0040608110A0C0E103F
:101F800030240AE0102408E0202406E0382404E08D
:101F9000282402E0182400E00824A1F5094089382B
:101FA00005D0032044F48051BDE8F040B3E5112092
:101FB00046F240012143F7E700B5FFF7D8FDFFF7F0
:101FC000BFFDF8484FF0D8410088488000BD2DE99A
:101FD000F041F54D904602464FEA102CAF88284656
:101FE0000C460E0A4089A7F51341413913D0A7F5D5
:101FF000A64110390FD0B1F5007110D02B46A7F5CE
:10200000D04C99791B889B1A5B1EBCF1040C1FD025
:10201000012932D032E0FFF75FFD60461EE0FFF796
:102020005BFD6046FFF763FD6889401C80B2FFF7E7
:1020300053FDD0B2FFF75BFDA889FFF74DFD304699
:10204000FFF755FDA889401C80B2FFF745FD10E061
:10205000012900D19AB2FFF73FFD100AFFF747FDB3
:10206000D0B2FFF744FDA889FFF736FD3046FFF7F1
:102070003EFDE0B2FFF73BFD07E09AB21146FFF7E5
:102080004AFDA8892146FFF746FD4FF0D84029892F
:102090000180A0F80280BDE8F0812DE9F04FC2492F
:1020A0002C232A242B2522222126898848F68919C7
:1020B0004FF04E0A4FF04F0B45F2105EF02749F2F9
:1020C0004138F8B1B8484FF0010C414580F806C0DE
:1020D0004FF4A07CA0F800C047800FD0A1F5A64720
:1020E000103F0BD0A1F5D047043F4ED0494550D109
:1020F0000281A0F80AB0A0F80CA060E0038144813E
:1021000085815CE0A8484FF0000C414580F806C08E
:1021100007804FF4A077478011D0A1F5D04CBCF1D7
:10212000040C0CD0A1F5A04CBCF5447C07D049456B
:1021300014D10281A0F80AA0A0F80CB04CE00381F1
:102140004481A1F5D0428581043A03D0A1F5A6428D
:10215000103A41D107804FF4F0710FE071450FD173
:102160004FF4305101814FF4285141814FF42C51EB
:1021700081814FF4F07101804FF4487141802BE070
:10218000028120214181868126E00381458184816D
:1021900015E071450FD14FF4305202814FF42852AF
:1021A00042814FF42C5282814FF4487202804FF4E6
:1021B000F072428003E00281468120228281A1F5F3
:1021C000D042043A03D0A1F5A642103A04D14FF40C
:1021D000F0710180A0F802C0BDE8F04F0020F3E5E7
:1021E0002DE9F04706461044401E84B2C818DFF8B7
:1021F000B8C1401E0D4682B24FEA1128BCF8040057
:102200006146370A4989A0F51343413B2DD0A0F51B
:10221000A643103B29D0A0F5D043043B25D0A0F520
:10222000AA43103B3ED09CF8060001287ED02746EA
:1022300031462C46944650204FF0510A4FF0520937
:102240004FF05308FFF767FC39465046FFF763FC31
:1022500021464846FFF75FFC61464046FFF75BFCBE
:1022600029463046BDE8F04781E40846FFF734FCD4
:102270003846FFF73CFCF0B2FFF739FC200AFFF7C5
:1022800036FCE0B2FFF733FCBCF80C00FFF724FC8F
:102290004046FFF72CFCE8B2FFF729FC100AFFF7D5
:1022A00026FC3FE00846FFF717FC3846FFF71FFC07
:1022B000BCF80A00401C80B2FFF70EFCF0B2FFF73A
:1022C00016FCBCF80A00801C80B2FFF705FC200A4F
:1022D000FFF70DFCBCF80A00C01C80B2FFF7FCFB46
:1022E000E0B2FFF704FCBCF80C00FFF7F5FB40463A
:1022F000FFF7FDFBBCF80C00401C80B2FFF7ECFBC5
:10230000E8B2FFF7F4FBBCF80C00801C80B2FFF7CA
:10231000E3FB100AFFF7EBFBBCF80C00C01C80B21B
:10232000FFF7DAFBBDE8F047D0B200E001E0FFF7CD
:10233000DEBBBCF800001746021B521E801B401E6D
:10234000294694B21FFA80FC75E72DE9F043164F39
:102350000646002438887D884543B888A0F5D041DA
:10236000043902D1B879012808D000210846FFF7C6
:10237000FEFBFFF7E5FB4FF0D84019E00020B871F5
:102380004FF02A09A7F80A904FF02B08A7F80C8005
:102390000146FFF7ECFB0120B871A7F80A80A7F807
:1023A0000C90E6E716000020A41E00204680641C66
:1023B000AC42FBD3BDE8F0832DE9F04F01210C02C4
:1023C0009FB0204607F000FD01214FF4F27007F0A6
:1023D00004FD0220ADF83C0010258DF83F5003208D
:1023E0008DF83E000FA9FE4807F00FFB4CF233704A
:1023F000ADF83C0018208DF83F0003208DF83E001A
:102400000FA9F84807F001FB4FF68070ADF83C00CB
:1024100018208DF83F0003208DF83E000FA9F248E8
:1024200007F0F3FA2601ADF83C6018208DF83F0064
:1024300003208DF83E000FA9EC4807F0E6FA4FF0B4
:10244000010AADF83CA018208DF83F0003208DF85C
:102450003E0057460FA9E64807F0D7FA00200F21A3
:10246000CDE918011A901B901C901D90032110902B
:10247000CDE91101CDE91607149006211590CDE99B
:102480000205CDE9001013900490CDE908060690EE
:1024900005900790A101CDE90A010C9017A80D90B5
:1024A00010A80E90684607F04FF80121062007F0AB
:1024B00080F9322006F0F7FD01210020FFF72BFB09
:1024C000322006F0F0FD0020FFF72FFBC94A4FF045
:1024D00020494FF6FF7B908049F2413545F2103696
:1024E00045F2105746F60408FF2804D3584502D099
:1024F000B0F5134F5ED1D320FFF7EEFAFFF702FBE2
:102500009080FFF7FFFA9080FFF7FCFA0BEA0020BB
:10251000DC469080FFF7F6FA918808439080A84245
:1025200048D0BF20FFF7D8FAFFF7ECFA9080FFF70A
:10253000E9FA9080FFF7E6FA9080FFF7E3FA0CEAF9
:1025400000209080FFF7DEFA918808439080404594
:1025500030D0D420FFF7C0FAFFF7D4FA9080FFF70D
:10256000D1FA9080FFF7CEFA0CEA00209080FFF7B6
:10257000C9FA918808439080B0421BD04FF45A406A
:10258000FFF7AAFAFFF7BEFA90804FF45B40FFF71F
:10259000A3FAFFF7B7FA0CEA002090804FF45C40F2
:1025A000FFF79AFAFFF7AEFA918808439080B0F5EA
:1025B000004F1ED080B2A84203D0B04201D0B84232
:1025C00019D1D9F81C11484621F00F01C9F81C1186
:1025D000D9F81C1121F47061C9F81C11D9F81C112B
:1025E00041F00301C9F81C11D9F81C1141F4007124
:1025F0001EE09780E5E7404503D0A0F54541053949
:1026000018D1D9F81C11484621F00F01C9F81C1146
:10261000D9F81C1121F47061C9F81C11D9F81C11EA
:1026200041F00A01C9F81C11D9F81C1141F44061AC
:10263000C0F81C11914691886FA02CF0C1F8B9F830
:102640000400A8427ED1CF20FFF746FA0020FFF712
:102650004EFAC120FFF74BFA3020FFF748FAED2081
:10266000FFF73AFA6420FFF742FA0320FFF73FFA38
:102670001220FFF73CFA8120FFF739FAE820FFF734
:102680002BFA8520FFF733FA1020FFF730FA7A2073
:10269000FFF72DFACB20FFF71FFA3920FFF727FAB3
:1026A0002C20FFF724FA0020FFF721FA3420FFF74F
:1026B0001EFA0220FFF71BFAF720FFF70DFA202081
:1026C000FFF715FAEA20FFF707FA0020FFF70FFAE5
:1026D0000020FFF70CFAC020FFF7FEF91B20FFF7E0
:1026E00006FAC120FFF7F8F90120FFF700FAC5202C
:1026F000FFF7F2F93020FFF7FAF93020FFF7F7F98A
:10270000C720FFF7E9F9B720FFF7F1F93620FFF707
:10271000E3F94820FFF7EBF93A20FFF7DDF9552000
:10272000FFF7E5F9B120FFF7D7F90020FFF7DFF950
:102730001A20FFF7DCF9B620FFF7CEF90A20FFF7E1
:10274000D6F900E0A5E0A220FFF7D1F9F220FFF7CB
:10275000C3F90020FFF7CBF92620FFF7BDF90120D0
:10276000FFF7C5F9E020FFF7B7F90F20FFF7BFF932
:102770002A20FFF7BCF92820FFF7B9F90820FFF756
:10278000B6F90E20FFF7B3F90820FFF7B0F954208F
:10279000FFF7ADF9A920FFF7AAF94320FFF7A7F942
:1027A0000A20FFF7A4F90F20FFF7A1F90020FFF797
:1027B0009EF90020FFF79BF90020FFF798F9002011
:1027C000FFF795F9E120FFF787F90020FFF78FF970
:1027D0001520FFF78CF91720FFF789F9072013E080
:1027E0000008014000140140001801400020014091
:1027F000001C0140A41E0020204C43442049443AC0
:1028000025780D0A00000000FFF771F91120FFF78D
:102810006EF90620FFF76BF92B20FFF768F95620B9
:10282000FFF765F93C20FFF762F90520FFF75FF934
:102830001020FFF75CF90F20FFF759F93F20FFF751
:1028400056F93F20FFF753F90F20FFF750F92B20DF
:10285000FFF742F90020FFF74AF90020FFF747F998
:102860000120FFF744F93F20FFF741F92A20FFF745
:1028700033F90020FFF73BF90020FFF738F900207B
:10288000FFF735F9EF20FFF732F91120FFF724F9B0
:10289000A5E040457ED11120FFF71EF9142006F077
:1028A00002FCD020FFF718F90720FFF720F942209B
:1028B000FFF71DF91D20FFF71AF9D120FFF70CF9DA
:1028C0000020FFF714F91A20FFF711F90920FFF78C
:1028D0000EF9D220FFF700F90120FFF708F92220B6
:1028E000FFF705F9C020FFF7F7F81020FFF7FFF812
:1028F0003B20FFF7FCF80020FFF7F9F80220FFF774
:10290000F6F81120FFF7F3F8C520FFF7E5F80320EC
:10291000FFF7EDF8C820FFF7DFF80020FFF7E7F832
:102920002520FFF7E4F82120FFF7E1F80520FFF765
:10293000DEF80020FFF7DBF80A20FFF7D8F8652063
:10294000FFF7D5F82520FFF7D2F87720FFF7CFF86B
:102950005020FFF7CCF80F20FFF7C9F80020FFF751
:10296000C6F8F820FFF7B8F80120FFF7C0F8FE20FE
:10297000FFF7B2F80020FFF7BAF80220FFF7B7F828
:102980002020FFF7A9F83620FFF7A6F80820FFF768
:10299000AEF800E029E03A20FFF79EF85520FFF757
:1029A000A6F82B20FFF798F80020FFF7A0F80020EA
:1029B000FFF79DF80120FFF79AF83F20FFF797F8FF
:1029C0002A20FFF789F80020FFF791F80020FFF791
:1029D0008EF80120FFF78BF8DF20FFF788F87820CA
:1029E00006F061FB292001F0FBBEB0427ED1ED2054
:1029F000FFF772F80120FFF77AF8FE20FFF777F86B
:102A0000EE20FFF769F8DE20FFF771F82120FFF7CD
:102A10006EF8F120FFF760F80120FFF768F8DF207B
:102A2000FFF75AF81020FFF762F8C420FFF754F8B8
:102A30008F20FFF75CF8C620FFF74EF80020FFF765
:102A400056F8E220FFF753F8E220FFF750F8E220B3
:102A5000FFF74DF8BF20FFF73FF8AA20FFF747F830
:102A6000B020FFF739F80D20FFF741F80020FFF7FD
:102A70003EF80D20FFF73BF80020FFF738F8112053
:102A8000FFF735F80020FFF732F81920FFF72FF88D
:102A90000020FFF72CF82120FFF729F80020FFF78E
:102AA00026F82D20FFF723F80020FFF720F83D201F
:102AB000FFF71DF80020FFF71AF85D20FFF717F861
:102AC0000020FFF714F85D20FFF711F80020FFF752
:102AD0000EF8B120FFF700F88020FFF708F800207B
:102AE000FFF705F88B20FFF702F800E0FDE3002078
:102AF000FEF7FDFF9620FEF7FAFF0020FEF7F7FF36
:102B0000B220FEF7E9FF0020FEF7F1FF0020FEF7FC
:102B1000EEFF0220FEF7EBFF0020FEF7E8FF0320A8
:102B2000FEF7E5FF0020FEF7E2FFB320FEF7D4FF3B
:102B30000020FEF7DCFF0020FEF7D9FF0020FEF7A3
:102B4000D6FF0020FEF7D3FF0020FEF7D0FF0020C5
:102B5000FEF7CDFF0020FEF7CAFF0020FEF7C7FFFB
:102B60000020FEF7C4FF0020FEF7C1FF0020FEF7A3
:102B7000BEFF0020FEF7BBFF0020FEF7B8FF0020DD
:102B8000FEF7B5FF0020FEF7B2FF0020FEF7AFFF13
:102B90000020FEF7ACFF0020FEF7A9FF0020FEF7A3
:102BA000A6FF0020FEF7A3FF0020FEF7A0FF0020F5
:102BB000FEF79DFF0020FEF79AFF0020FEF797FF2B
:102BC000B420FEF789FF8B20FEF791FF0020FEF76F
:102BD0008EFF9620FEF78BFF0020FEF788FFA120D6
:102BE000FEF785FF0020FEF782FFB520FEF774FF99
:102BF0000220FEF77CFF0020FEF779FF0320FEF79E
:102C000076FF0020FEF773FF0420FEF770FF002020
:102C1000FEF76DFFB620FEF75FFF0020FEF767FFAF
:102C20000020FEF764FFB720FEF756FF0020FEF7F6
:102C30005EFF0020FEF75BFF3F20FEF758FF0020FD
:102C4000FEF755FF5E20FEF752FF0020FEF74FFF14
:102C50006420FEF74CFF0020FEF749FF8C20FEF7B2
:102C600046FF0020FEF743FFAC20FEF740FF0020A8
:102C7000FEF73DFFDC20FEF73AFF0020FEF737FFAE
:102C80007020FEF734FF0020FEF731FF9020FEF7A2
:102C90002EFF0020FEF72BFFEB20FEF728FF002081
:102CA000FEF725FFDC20FEF722FF0020FEF71FFFC6
:102CB000B820FEF711FF0020FEF719FF0020FEF7F5
:102CC00016FF0020FEF713FF0020FEF710FF002084
:102CD000FEF70DFF0020FEF70AFF0020FEF707FFBA
:102CE0000020FEF704FFBA20FEF7F6FE2420FEF7D0
:102CF000FEFE0020FEF7FBFE0020FEF7F8FE00209F
:102D0000FEF7F5FEC120FEF7E7FE2020FEF7EFFEFE
:102D10000020FEF7ECFE5420FEF7E9FE0020FEF74F
:102D2000E6FEFF20FEF7E3FE0020FEF7E0FEC220F5
:102D3000FEF7D2FE0A20FEF7DAFE0020FEF7D7FEED
:102D40000420FEF7D4FE0020FEF7D1FEC320FEF7DC
:102D5000C3FE3C20FEF7CBFE0020FEF7C8FE3A2063
:102D6000FEF7C5FE0020FEF7C2FE3920FEF7BFFECB
:102D70000020FEF7BCFE3720FEF7B9FE0020FEF76C
:102D8000B6FE3C20FEF7B3FE0020FEF7B0FE362074
:102D9000FEF7ADFE0020FEF7AAFE3220FEF7A7FEEA
:102DA0000020FEF7A4FE2F20FEF7A1FE0020FEF774
:102DB0009EFE2C20FEF79BFE0020FEF798FE2920A9
:102DC000FEF795FE0020FEF792FE2620FEF78FFE0E
:102DD0000020FEF78CFE2420FEF789FE0020FEF77F
:102DE00086FE2420FEF783FE0020FEF780FE2320CF
:102DF000FEF77DFE0020FEF77AFE3C20FEF777FE10
:102E00000020FEF774FE3620FEF771FE0020FEF76C
:102E10006EFE3220FEF76BFE0020FEF768FE2F20CC
:102E2000FEF765FE0020FEF762FE2C20FEF75FFE37
:102E30000020FEF75CFE2920FEF759FE0020FEF779
:102E400056FE2620FEF753FE0020FEF750FE2420FB
:102E5000FEF74DFE0020FEF74AFE2420FEF747FE57
:102E60000020FEF744FE2320FEF741FE0020FEF77F
:102E70003EFEC420FEF730FE6220FEF738FE002042
:102E8000FEF735FE0520FEF732FE0020FEF72FFE8E
:102E90008420FEF72CFE0020FEF729FEF020FEF72E
:102EA00026FE0020FEF723FE1820FEF720FE00205D
:102EB000FEF71DFEA420FEF71AFE0020FEF717FE07
:102EC0001820FEF714FE0020FEF711FE5020FEF73A
:102ED0000EFE0020FEF70BFE0C20FEF708FE002081
:102EE000FEF705FE1720FEF702FE0020FEF7FFFDAD
:102EF0009520FEF7FCFD0020FEF7F9FDF320FEF71C
:102F0000F6FD0020FEF7F3FDE620FEF7F0FD0020C1
:102F1000FEF7EDFDC520FEF7DFFD3220FEF7E7FDF1
:102F20000020FEF7E4FD4420FEF7E1FD0020FEF75F
:102F3000DEFD6520FEF7DBFD0020FEF7D8FD7620E4
:102F4000FEF7D5FD0020FEF7D2FD8820FEF7CFFD6D
:102F50000020FEF7CCFDC620FEF7BEFD2020FEF7C8
:102F6000C6FD0020FEF7C3FD1720FEF7C0FD0020C0
:102F7000FEF7BDFD0120FEF7BAFD0020FEF7B7FD0C
:102F8000C720FEF7A9FD0020FEF7B1FD0020FEF7E7
:102F9000AEFD0020FEF7ABFD0020FEF7A8FDC82027
:102FA000FEF79AFD0020FEF7A2FD0020FEF79FFD30
:102FB0000020FEF79CFD0020FEF799FDC920FEF7DA
:102FC0008BFD0020FEF793FD0020FEF790FD002012
:102FD000FEF78DFD0020FEF78AFD0020FEF787FD3D
:102FE0000020FEF784FD0020FEF781FD0020FEF7A3
:102FF0007EFD0020FEF77BFD0020FEF778FD00201F
:10300000FEF775FD0020FEF772FD0020FEF76FFD54
:103010000020FEF76CFD0020FEF769FD0020FEF7A2
:1030200066FDE020FEF758FD1620FEF760FD00204B
:10303000FEF75DFD1C20FEF75AFD0020FEF757FD50
:103040002120FEF754FD0020FEF751FD3620FEF74B
:103050004EFD0020FEF74BFD4620FEF748FD002008
:10306000FEF745FD5220FEF742FD0020FEF73FFD32
:103070006420FEF73CFD0020FEF739FD7A20FEF7C4
:1030800036FD0020FEF733FD8B20FEF730FD0020DB
:10309000FEF72DFD9920FEF72AFD0020FEF727FD03
:1030A000A820FEF724FD0020FEF721FDB920FEF741
:1030B0001EFD0020FEF71BFDC420FEF718FD0020BA
:1030C000FEF715FDCA20FEF712FD0020FEF70FFDEA
:1030D000D220FEF70CFD0020FEF709FDD920FEF7F7
:1030E00006FD0020FEF703FDE020FEF700FD0020B6
:1030F000FEF7FDFCF320FEF7FAFC0020FEF7F7FCDC
:10310000E120FEF7E9FC1620FEF7F1FC0020FEF7B7
:10311000EEFC1C20FEF7EBFC0020FEF7E8FC222072
:10312000FEF7E5FC0020FEF7E2FC3620FEF7DFFCB0
:103130000020FEF7DCFC4520FEF7D9FC0020FEF75E
:10314000D6FC5220FEF7D3FC0020FEF7D0FC642012
:10315000FEF7CDFC0020FEF7CAFC7A20FEF7C7FC84
:103160000020FEF7C4FC8B20FEF7C1FC0020FEF718
:10317000BEFC9920FEF7BBFC0020FEF7B8FCA8209F
:10318000FEF7B5FC0020FEF7B2FCB920FEF7AFFC5D
:103190000020FEF7ACFCC420FEF7A9FC0020FEF7DF
:1031A000A6FCCA20FEF7A3FC0020FEF7A0FCD2205C
:1031B000FEF79DFC0020FEF79AFCD820FEF797FC56
:1031C0000020FEF794FCE020FEF791FC0020FEF7C3
:1031D0008EFCF320FEF78BFC0020FEF788FCE2203B
:1031E000FEF77AFC0520FEF782FC0020FEF77FFC4C
:1031F0000B20FEF77CFC0020FEF779FC1B20FEF77D
:1032000076FC0020FEF773FC3420FEF770FC0020F3
:10321000FEF76DFC4420FEF76AFC0020FEF767FC19
:103220004F20FEF764FC0020FEF761FC6120FEF7F2
:103230005EFC0020FEF75BFC7920FEF758FC0020C6
:10324000FEF755FC8820FEF752FC0020FEF74FFCED
:103250009720FEF74CFC0020FEF749FCA620FEF765
:1032600046FC0020FEF743FCB720FEF740FC0020A0
:10327000FEF73DFCC220FEF73AFC0020FEF737FCCB
:10328000C720FEF734FC0020FEF731FCD120FEF70A
:103290002EFC0020FEF72BFCD620FEF728FC002099
:1032A000FEF725FCDD20FEF722FC0020FEF71FFCC8
:1032B000F320FEF71CFC0020FEF719FCE320FEF7CC
:1032C0000BFC0520FEF713FC0020FEF710FC0A2083
:1032D000FEF70DFC0020FEF70AFC1C20FEF707FCA1
:1032E0000020FEF704FC332000E0FAE2FEF7FFFBCB
:1032F0000020FEF7FCFB4420FEF7F9FB0020FEF760
:10330000F6FB5020FEF7F3FB0020FEF7F0FB6220F7
:10331000FEF7EDFB0020FEF7EAFB7820FEF7E7FB67
:103320000020FEF7E4FB8820FEF7E1FB0020FEF71B
:10333000DEFB9720FEF7DBFB0020FEF7D8FBA62084
:10334000FEF7D5FB0020FEF7D2FBB720FEF7CFFB40
:103350000020FEF7CCFBC220FEF7C9FB0020FEF7E1
:10336000C6FBC720FEF7C3FB0020FEF7C0FBD12041
:10337000FEF7BDFB0020FEF7BAFBD520FEF7B7FB3A
:103380000020FEF7B4FBDD20FEF7B1FB0020FEF7C6
:10339000AEFBF320FEF7ABFB0020FEF7A8FBE4201A
:1033A000FEF79AFB0120FEF7A2FB0020FEF79FFB31
:1033B0000120FEF79CFB0020FEF799FB0220FEF7A0
:1033C00096FB0020FEF793FB2A20FEF790FB0020DF
:1033D000FEF78DFB3C20FEF78AFB0020FEF787FB03
:1033E0004B20FEF784FB0020FEF781FB5D20FEF7FB
:1033F0007EFB0020FEF77BFB7420FEF778FB0020AD
:10340000FEF775FB8420FEF772FB0020FEF76FFBD2
:103410009320FEF76CFB0020FEF769FBA220FEF76D
:1034200066FB0020FEF763FBB320FEF760FB002085
:10343000FEF75DFBBE20FEF75AFB0020FEF757FBB0
:10344000C420FEF754FB0020FEF751FBCD20FEF711
:103450004EFB0020FEF74BFBD320FEF748FB00207D
:10346000FEF745FBDD20FEF742FB0020FEF73FFBA9
:10347000F320FEF73CFB0020FEF739FBE520FEF7CA
:103480002BFB0020FEF733FB0020FEF730FB002073
:10349000FEF72DFB0020FEF72AFB0220FEF727FB9C
:1034A0000020FEF724FB2920FEF721FB0020FEF779
:1034B0001EFB3C20FEF71BFB0020FEF718FB4B20F9
:1034C000FEF715FB0020FEF712FB5D20FEF70FFB59
:1034D0000020FEF70CFB7420FEF709FB0020FEF72E
:1034E00006FB8420FEF703FB0020FEF700FB932081
:1034F000FEF7FDFA0020FEF7FAFAA220FEF7F7FA2F
:103500000020FEF7F4FAB320FEF7F1FA0020FEF7F0
:10351000EEFABE20FEF7EBFA0020FEF7E8FAC42030
:10352000FEF7E5FA0020FEF7E2FACD20FEF7DFFA1B
:103530000020FEF7DCFAD320FEF7D9FA0020FEF7D0
:10354000D6FADC20FEF7D3FA0020FEF7D0FAF320FB
:10355000FEF7CDFA0020FEF7CAFAE620FEF7BCFA25
:103560001120FEF7C4FA0020FEF7C1FA3420FEF75E
:10357000BEFA0020FEF7BBFA5620FEF7B8FA00208C
:10358000FEF7B5FA7620FEF7B2FA0020FEF7AFFAA2
:103590007720FEF7ACFA0020FEF7A9FA6620FEF7C6
:1035A000A6FA0020FEF7A3FA8820FEF7A0FA002072
:1035B000FEF79DFA9920FEF79AFA0020FEF797FA97
:1035C000BB20FEF794FA0020FEF791FA9920FEF74F
:1035D0008EFA0020FEF78BFA6620FEF788FA0020AC
:1035E000FEF785FA5520FEF782FA0020FEF77FFAF3
:1035F0005520FEF77CFA0020FEF779FA4520FEF709
:1036000076FA0020FEF773FA4320FEF770FA0020E6
:10361000FEF76DFA4420FEF76AFA0020FEF767FA1B
:10362000E720FEF759FA3220FEF761FA0020FEF794
:103630005EFA5520FEF75BFA0020FEF758FA762076
:10364000FEF755FA0020FEF752FA6620FEF74FFA11
:103650000020FEF74CFA6720FEF749FA0020FEF73B
:1036600046FA6720FEF743FA0020FEF740FA87206B
:10367000FEF73DFA0020FEF73AFA9920FEF737FAF6
:103680000020FEF734FABB20FEF731FA0020FEF7E7
:103690002EFA9920FEF72BFA0020FEF728FA772061
:1036A000FEF725FA0020FEF722FA4420FEF71FFA63
:1036B0000020FEF71CFA5620FEF719FA0020FEF74C
:1036C00016FA2320FEF713FA0020FEF710FA332033
:1036D000FEF70DFA0020FEF70AFA4520FEF707FA7A
:1036E0000020FEF704FAE820FEF7F6F90020FEF7C6
:1036F000FEF90020FEF7FBF99920FEF7F8F900200B
:10370000FEF7F5F98720FEF7F2F90020FEF7EFF952
:103710008820FEF7ECF90020FEF7E9F97720FEF7A4
:10372000E6F90020FEF7E3F96620FEF7E0F9002055
:10373000FEF7DDF98820FEF7DAF90020FEF7D7F969
:10374000AA20FEF7D4F90020FEF7D1F9BB20FEF73E
:10375000CEF90020FEF7CBF99920FEF7C8F900203A
:10376000FEF7C5F96620FEF7C2F90020FEF7BFF9A3
:103770005520FEF7BCF90020FEF7B9F95520FEF7F9
:10378000B6F90020FEF7B3F94420FEF7B0F90020A7
:10379000FEF7ADF94420FEF7AAF90020FEF7A7F9DD
:1037A0005520FEF7A4F90020FEF7A1F9E920FEF765
:1037B00093F9AA20FEF79BF90020FEF798F9002064
:1037C000FEF795F90020FEF792F90020FEF784F944
:1037D000AA20FEF78CF9CF20FEF77EF90020FEF735
:1037E00086F90020FEF783F90020FEF780F900201B
:1037F000FEF77DF90020FEF77AF90020FEF777F951
:103800000020FEF774F90020FEF771F90020FEF7A2
:103810006EF90020FEF76BF90020FEF768F9002032
:10382000FEF765F90020FEF762F90020FEF75FF968
:103830000020FEF75CF90020FEF759F90020FEF7A2
:1038400056F9F020FEF748F90020FEF750F9502015
:10385000FEF74DF90020FEF74AF90020FEF747F980
:103860000020FEF744F9F320FEF736F90020FEF7BA
:103870003EF9F920FEF730F90620FEF738F910205E
:10388000FEF735F92920FEF732F90020FEF72FF96F
:103890003A20FEF721F95520FEF729F91120FEF70D
:1038A0001BF9642005F0FFFB2920FEF715F93520F0
:1038B000FEF712F90020FEF71AF95120FEF70CF975
:1038C000FF20FEF714F95320FEF706F92C20FEF72F
:1038D0000EF95520FEF700F98220FEF708F92C209A
:1038E000FDE3B8427DD14FF4704455212046FEF7E8
:1038F00012F9651CAA212846FEF70DF9A61C5221D3
:103900003046FEF708F9E71C08213846FEF703F9B0
:103910004FF2040C01216046FEF7FDF80D214FF433
:103920003040FEF7F8F80D214BF20100FEF7F3F8F6
:103930000D214BF20200FEF7EEF84FF43648342129
:103940004046FEF7E8F834214BF20160FEF7E3F859
:1039500034214BF20260FEF7DEF84FF431490D21BD
:103960004846FEF7D8F80D214BF20110FEF7D3F8C8
:103970000D214BF20210FEF7CEF834214FF4374000
:10398000FEF7C9F834214BF20170FEF7C4F8342178
:103990004BF20270FEF7BFF800214FF43240FEF701
:1039A000BAF800214BF20120FEF7B5F800214BF2E6
:1039B0000220FEF7B0F824214FF43840FEF7ABF8B0
:1039C00024214BF60100FEF7A6F824214BF6020055
:1039D000FEF7A1F801214FF43F40FEF79CF80F21BC
:1039E00000E0FDE34FF43340FEF795F80F214BF272
:1039F0000130FEF790F80F214BF20230FEF78BF802
:103A000034214FF43940FEF786F834214BF601108B
:103A1000FEF781F834214BF60210FEF77CF80821FE
:103A20004FF43540FEF777F808214BF20150FEF7CE
:103A300072F808214BF20250FEF76DF803214FF4A3
:103A40004240FEF768F824214FF43A40FEF763F84D
:103A500024214BF60120FEF75EF824214BF60220CC
:103A6000FEF759F800214FF43C40FEF754F8782156
:103A70004BF60140FEF74FF800214BF60240FEF7EF
:103A80004AF800214FF43D40FEF745F878214BF607
:103A90000150FEF740F800214BF60250FEF73BF8CC
:103AA00000214FF43E40FEF736F864214BF60160EA
:103AB000FEF731F800214FF45140FEF72CF8332186
:103AC0004DF20110FEF727F800214DF20210FEF72B
:103AD00022F834214DF20310FEF71DF800214DF2BB
:103AE0000410FEF718F83A214DF20510FEF713F80E
:103AF00000214DF20610FEF70EF84A214DF2071094
:103B0000FEF709F800214DF20810FEF704F85C21D9
:103B10004DF20910FDF7FFFF00214DF20A10FDF7ED
:103B2000FAFF81214DF20B10FDF7F5FF00214DF258
:103B30000C10FDF7F0FFA6214DF20D10FDF7EBFF85
:103B400000214DF20E10FDF7E6FFE5214DF20F10BA
:103B5000FDF7E1FF01214DF21010FDF7DCFF13210D
:103B60004DF21110FDF7D7FF01214DF21210FDF7B4
:103B7000D2FF54214DF21310FDF7CDFF01214DF27C
:103B80001410FDF7C8FF82214DF21510FDF7C3FF99
:103B900001214DF21610FDF7BEFFCA214DF217109C
:103BA000FDF7B9FF02214DF21810FDF7B4FF002117
:103BB0004DF21910FDF7AFFF02214DF21A10FDF77B
:103BC000AAFF01214DF21B10FDF7A5FF02214DF2C6
:103BD0001C10FDF7A0FF34214DF21D10FDF79BFFD7
:103BE00002214DF21E10FDF796FF67214DF21F10C6
:103BF000FDF791FF02214DF22010FDF78CFF84218B
:103C00004DF22110FDF787FF02214DF22210FDF742
:103C100082FFA4214DF22310FDF77DFF02214DF21A
:103C20002410FDF778FFB7214DF22510FDF773FF43
:103C300002214DF22610FDF76EFFCF214DF2271025
:103C4000FDF769FF02214DF22810FDF764FFDE2128
:103C50004DF22910FDF75FFF02214DF22A10FDF70A
:103C60005AFFF2214DF22B10FDF755FF02214DF2C4
:103C70002C10FDF750FFFE214DF22D10FDF74BFFEC
:103C800003214DF22E10FDF746FF10214DF22F10AB
:103C9000FDF741FF03214DF23010FDF73CFF3321CA
:103CA0004DF23110FDF737FF03214DF23210FDF7D1
:103CB00032FF6D214DF23310FDF72DFF00214FF43F
:103CC0005240FDF728FF33214DF20120FDF723FF7D
:103CD00000214DF20220FDF71EFF34214DF203209A
:103CE000FDF719FF00214DF20420FDF714FF3A21E2
:103CF0004DF20520FDF70FFF00214DF20620FDF7E4
:103D00000AFF4A214DF20720FDF705FF00214DF281
:103D10000820FDF700FF5C214DF20920FDF7FBFEB6
:103D200000214DF20A20FDF7F6FE81214DF20B2015
:103D3000FDF7F1FE00214DF20C20FDF7ECFEA6216F
:103D40004DF20D20FDF7E7FE00214DF20E20FDF7AC
:103D5000E2FEE5214DF20F20FDF7DDFE01214DF2DF
:103D60001020FDF7D8FE13214DF21120FDF7D3FEF0
:103D700001214DF21220FDF7CEFE54214DF2132009
:103D8000FDF7C9FE01214DF21420FDF7C4FE82218A
:103D90004DF21520FDF7BFFE01214DF21620FDF773
:103DA000BAFECA214DF21720FDF7B5FE02214DF2F1
:103DB0001820FDF7B0FE00214DF21920FDF7ABFEF3
:103DC00002214DF21A20FDF7A6FE01214DF21B2023
:103DD000FDF7A1FE02214DF21C20FDF79CFE3421CF
:103DE0004DF21D20FDF797FE02214DF21E20FDF73A
:103DF00092FE67214DF21F20FDF78DFE02214DF24C
:103E00002020FDF788FE84214DF22120FDF783FE5E
:103E100002214DF22220FDF77EFEA4214DF2232047
:103E2000FDF779FE02214DF22420FDF774FEB72143
:103E30004DF22520FDF76FFE02214DF22620FDF701
:103E40006AFECF214DF22720FDF765FE02214DF2DB
:103E50002820FDF760FEDE214DF22920FDF75BFEF4
:103E600002214DF22A20FDF756FEF2214DF22B20C1
:103E7000FDF751FE02214DF22C20FDF74CFEFE21F4
:103E80004DF22D20FDF747FE03214DF22E20FDF7C8
:103E900042FE10214DF22F20FDF73DFE03214DF291
:103EA0003020FDF738FE33214DF23120FDF733FE8F
:103EB00003214DF23220FDF72EFE6D214DF233200D
:103EC000FDF729FE00214FF45340FDF724FE332176
:103ED0004DF20130FDF71FFE00214DF20230FDF7DB
:103EE0001AFE34214DF20330FDF715FE00214DF28C
:103EF0000430FDF710FE3A214DF20530FDF70BFEC0
:103F000000214DF20630FDF706FE4A214DF2073042
:103F1000FDF701FE00214DF20830FDF7FCFD5C21AC
:103F20004DF20930FDF7F7FD00214DF20A30FDF7A3
:103F3000F2FD81214DF20B30FDF7EDFD00214DF238
:103F40000C30FDF7E8FDA6214DF20D30FDF7E3FD45
:103F500000214DF20E30FDF7DEFDE5214DF20F3070
:103F6000FDF7D9FD01214DF21030FDF7D4FD1321ED
:103F70004DF21130FDF7CFFD01214DF21230FDF76A
:103F8000CAFD54214DF21330FDF7C5FD01214DF25C
:103F90001430FDF7C0FD82214DF21530FDF7BBFD59
:103FA00001214DF21630FDF7B6FDCA214DF2173052
:103FB000FDF7B1FD02214DF21830FDF7ACFD0021F7
:103FC0004DF21930FDF7A7FD02214DF21A30FDF731
:103FD000A2FD01214DF21B30FDF79DFD02214DF2A6
:103FE0001C30FDF798FD34214DF21D30FDF793FD97
:103FF00002214DF21E30FDF78EFD67214DF21F307C
:10400000FDF789FD02214DF22030FDF784FD84216A
:104010004DF22130FDF77FFD02214DF22230FDF7F8
:104020007AFDA4214DF22330FDF775FD02214DF2FA
:104030002430FDF770FDB7214DF22530FDF76BFD03
:1040400002214DF22630FDF766FDCF214DF22730DB
:10405000FDF761FD02214DF22830FDF75CFDDE2108
:104060004DF22930FDF757FD02214DF22A30FDF7C0
:1040700052FDF2214DF22B30FDF74DFD02214DF2A4
:104080002C30FDF748FDFE214DF22D30FDF743FDAC
:1040900003214DF22E30FDF73EFD10214DF22F3061
:1040A000FDF739FD03214DF23030FDF734FD3321AA
:1040B0004DF23130FDF72FFD03214DF23230FDF787
:1040C0002AFD6D214DF23330FDF725FD00214FF41F
:1040D0005440FDF720FD33214DF2014000E07FE325
:1040E000FDF719FD00214DF20240FDF714FD3421CA
:1040F0004DF20340FDF70FFD00214DF20440FDF7A6
:104100000AFD3A214DF20540FDF705FD00214DF273
:104110000640FDF700FD4A214DF20740FDF7FBFC8C
:1041200000214DF20840FDF7F6FC5C214DF20940FC
:10413000FDF7F1FC00214DF20A40FDF7ECFC812176
:104140004DF20B40FDF7E7FC00214DF20C40FDF76E
:10415000E2FCA6214DF20D40FDF7DDFC00214DF201
:104160000E40FDF7D8FCE5214DF20F40FDF7D3FCE2
:1041700001214DF21040FDF7CEFC13214DF211400C
:10418000FDF7C9FC01214DF21240FDF7C4FC54219A
:104190004DF21340FDF7BFFC01214DF21440FDF735
:1041A000BAFC82214DF21540FDF7B5FC01214DF21C
:1041B0001640FDF7B0FCCA214DF21740FDF7ABFCED
:1041C00002214DF21840FDF7A6FC00214DF21940E6
:1041D000FDF7A1FC02214DF21A40FDF79CFC00E026
:1041E00001E301214DF21B40FDF795FC02214DF248
:1041F0001C40FDF790FC34214DF21D40FDF78BFC77
:1042000002214DF21E40FDF786FC67214DF21F4052
:10421000FDF781FC02214DF22040FDF77CFC84215A
:104220004DF22140FDF777FC02214DF22240FDF7CF
:1042300072FCA4214DF22340FDF76DFC02214DF2EA
:104240002440FDF768FCB7214DF22540FDF763FCE3
:1042500002214DF22640FDF75EFCCF214DF22740B2
:10426000FDF759FC02214DF22840FDF754FCDE21F8
:104270004DF22940FDF74FFC02214DF22A40FDF797
:104280004AFCF2214DF22B40FDF745FC02214DF294
:104290002C40FDF740FCFE214DF22D40FDF73BFC8C
:1042A00003214DF22E40FDF736FC10214DF22F4038
:1042B000FDF731FC03214DF23040FDF72CFC33219A
:1042C0004DF23140FDF727FC03214DF23240FDF75E
:1042D00022FC6D214DF23340FDF71DFC00214FF40F
:1042E0005540FDF718FC33214DF20150FDF713FC4A
:1042F00000214DF20250FDF70EFC34214DF2035027
:10430000FDF709FC00214DF20450FDF704FC3A21B1
:104310004DF20550FDF7FFFB00214DF20650FDF771
:10432000FAFB4A214DF20750FDF7F5FB00214DF253
:104330000850FDF7F0FB5C214DF20950FDF7EBFB57
:1043400000214DF20A50FDF7E6FB81214DF20B50A2
:10435000FDF7E1FB00214DF20C50FDF7DCFBA6213F
:104360004DF20D50FDF7D7FB00214DF20E50FDF739
:10437000D2FBE5214DF20F50FDF7CDFB01214DF2AF
:104380001050FDF7C8FB13214DF21150FDF7C3FB90
:1043900001214DF21250FDF7BEFB54214DF2135096
:1043A000FDF7B9FB01214DF21450FDF7B4FB82215A
:1043B0004DF21550FDF7AFFB01214DF21650FDF700
:1043C000AAFBCA214DF21750FDF7A5FB02214DF2C1
:1043D0001850FDF7A0FB00214DF21950FDF79BFB93
:1043E00002214DF21A50FDF796FB01214DF21B50B0
:1043F000FDF791FB02214DF21C50FDF78CFB34219F
:104400004DF21D50FDF787FB02214DF21E50FDF7C6
:1044100082FB67214DF21F50FDF77DFB02214DF21B
:104420002050FDF778FB84214DF22150FDF773FBFE
:1044300002214DF22250FDF76EFBA4214DF22350D4
:10444000FDF769FB02214DF22450FDF764FBB72113
:104450004DF22550FDF75FFB02214DF22650FDF78E
:104460005AFBCF214DF22750FDF755FB02214DF2AB
:104470002850FDF750FBDE214DF22950FDF74BFB94
:1044800002214DF22A50FDF746FBF2214DF22B504E
:10449000FDF741FB02214DF22C50FDF73CFBFE21C4
:1044A0004DF22D50FDF737FB03214DF22E50FDF755
:1044B00032FB10214DF22F50FDF72DFB03214DF261
:1044C0003050FDF728FB33214DF23150FDF723FB2F
:1044D00003214DF23250FDF71EFB6D214DF233509A
:1044E000FDF719FB00214FF45640FDF714FB332173
:1044F0004DF20160FDF70FFB00214DF20260FDF768
:104500000AFB34214DF20360FDF705FB00214DF25B
:104510000460FDF700FB3A214DF20560FDF7FBFA60
:1045200000214DF20660FDF7F6FA4A214DF20760D0
:10453000FDF7F1FA00214DF20860FDF7ECFA5C217D
:104540004DF20960FDF7E7FA00214DF20A60FDF730
:10455000E2FA81214DF20B60FDF7DDFA00214DF208
:104560000C60FDF7D8FAA6214DF20D60FDF7D3FAE5
:1045700000214DF20E60FDF7CEFAE5214DF20F60FD
:10458000FDF7C9FA01214DF21060FDF7C4FA1321BD
:104590004DF21160FDF7BFFA01214DF21260FDF7F7
:1045A000BAFA54214DF21360FDF7B5FA01214DF22C
:1045B0001460FDF7B0FA82214DF21560FDF7ABFAF9
:1045C00001214DF21660FDF7A6FACA214DF21760DF
:1045D000FDF7A1FA02214DF21860FDF79CFA0021C7
:1045E0004DF21960FDF797FA02214DF21A60FDF7BE
:1045F00092FA01214DF21B60FDF78DFA02214DF276
:104600001C60FDF788FA34214DF21D60FDF783FA36
:1046100002214DF21E60FDF77EFA67214DF21F6008
:10462000FDF779FA02214DF22060FDF774FA84213A
:104630004DF22160FDF76FFA02214DF22260FDF785
:104640006AFAA4214DF22360FDF765FA02214DF2CA
:104650002460FDF760FAB7214DF22560FDF75BFAA3
:1046600002214DF22660FDF756FACF214DF2276068
:10467000FDF751FA02214DF22860FDF74CFADE21D8
:104680004DF22960FDF747FA02214DF22A60FDF74D
:1046900042FAF2214DF22B60FDF73DFA02214DF274
:1046A0002C60FDF738FAFE214DF22D60FDF733FA4C
:1046B00003214DF22E60FDF72EFA10214DF22F60EE
:1046C000FDF729FA03214DF23060FDF724FA33217A
:1046D0004DF23160FDF71FFA03214DF23260FDF714
:1046E0001AFA6D214DF23360FDF715FA5521204677
:1046F000FDF711FAAA212846FDF70DFA522130469E
:10470000FDF709FA08213846FDF705FA0021604651
:10471000FDF701FACC214846FDF7FDF900214BF2E7
:104720000110FDF7F8F905214046FDF7F4F9702175
:104730004FF43740FDF7EFF970214BF20170FDF7B0
:10474000EAF901214FF43840FDF7E5F903214BF672
:104750000100FDF7E0F903214BF60200FDF7DBF95C
:1047600003214BF60300FDF7D6F902214FF43C403C
:10477000FDF7D1F900214BF60140FDF7CCF90021FE
:104780004BF60240FDF7C7F9D0214FF44940FDF741
:10479000C2F902214CF60110FDF7BDF950214CF68B
:1047A0000210FDF7B8F950214CF60310FDF7B3F9EC
:1047B00050214CF60410FDF7AEF900214FF454508F
:1047C000FDF7A9F955214FF46850FDF7A4F94FF40E
:1047D0008850FDF781F9782004F046FC4FF424500E
:1047E000FDF77AF9FDE3A0F513414FF4E06940F2DB
:1047F0003F154FF42748253928D04FF4017740F270
:104800000776C91E7ED0A0F5094189397BD0A0F575
:1048100013414FF41C58203976D0113975D0A0F5CA
:10482000A841083972D0A0F5A8514FF44077053956
:104830006DD0B1F520416BD0B1F5805169D0A0F5B4
:104840008A41313966D0091F7DD0CBE747F6F001A8
:10485000E520FDF760F921460120FDF75CF94946A6
:104860000220FDF758F941F230010320FDF753F91A
:1048700000210420FDF74FF940F202210820FDF746
:104880004AF900210920FDF746F900210A20FDF729
:1048900042F900210C20FDF73EF900210D20FDF723
:1048A0003AF900210F20FDF736F900211020FDF71D
:1048B00032F907211120FDF72EF900211220FDF712
:1048C0002AF900211320FDF726F900210720FDF722
:1048D00022F941F290611020FDF71DF940F22721E5
:1048E0001120FDF718F99D211220FDF714F94FF45E
:1048F000C8511320FDF70FF925212920FDF70BF9E9
:104900000D2108E07AE024E1D4E179E24CE3E9E327
:10491000FEE3FEE3FEE32B20FDF7FDF80721302048
:10492000FDF7F9F840F203313120FDF7F4F80321E7
:104930003220FDF7F0F840F206213520FDF7EBF8C4
:104940000821362000E0E6E3FDF7E5F840F20641F5
:104950003720FDF7E0F84FF441713820FDF7DBF820
:1049600007213920FDF7D7F840F202613C20FDF71E
:10497000D2F808213D20FDF7CEF800215020FDF7A8
:10498000CAF8EF215120FDF7C6F800215220FDF7AB
:10499000C2F829465320FDF7BEF841466020FDF7D6
:1049A000BAF801216120FDF7B6F800216A20FDF771
:1049B000B2F800218020FDF7AEF800218120FDF73C
:1049C000AAF800218220FDF7A6F800218320FDF738
:1049D000A2F800218420FDF79EF800218520FDF734
:1049E0009AF810219020FDF796F84FF4C0619220BC
:1049F000FDF791F840F233110720FDE341F28F01FA
:104A0000EC20FDF788F841F23421EF20FDF783F820
:104A100021460120FDF77FF849460220FDF77BF88B
:104A200041F230010320FDF776F800210420FDF764
:104A300072F840F202210820FDF76DF800210920EC
:104A4000FDF769F800210A20FDF765F801210C2027
:104A5000FDF761F800210D20FDF75DF800210F2022
:104A6000FDF759F800211020FDF755F80721112016
:104A7000FDF751F800211220FDF74DF80021132019
:104A8000FDF749F801210720FDF745F8322004F031
:104A90000AFB41F290411020FDF73DF840F227213A
:104AA0001120FDF738F8322004F0FDFA8A21122097
:104AB000FDF731F8322004F0F6FA4FF4D05113200C
:104AC000FDF729F806212920FDF725F80D212B20D7
:104AD000FDF721F8322004F0E6FA00212020FDF74E
:104AE0001AF800212120FDF716F8322004F0DBFA35
:104AF00000213020FDF70FF840F204613120FDF76E
:104B00000AF840F205313220FDF705F80021352082
:104B1000FDF701F840F609413620FCF7FCFF394665
:104B20003720FCF7F8FF40F201313820FCF7F3FFA3
:104B300031463920FCF7EFFF00213C20FCF7EBFF6A
:104B400040F60A213D20FCF7E6FF322004F0ABFAE4
:104B5000EEE101210020FCF7DEFF4AF6A40103206C
:104B6000FCF7D9FF00210C20FCF7D5FF40F60C0123
:104B70000D20FCF7D0FF4FF42C510E20FCF7CBFF9B
:104B8000B0211E20FCF7C7FF42F63F310120FCF7A1
:104B9000C2FF4FF4C0610220FCF7BDFF00211020CE
:104BA000FCF7B9FF46F278011120FCF7B4FF0021B1
:104BB0000520FCF7B0FF00210620FCF7ACFF4EF605
:104BC0001C711620FCF7A7FF03211720FCF7A3FF99
:104BD00040F233210720FCF79EFF00210B20FCF759
:104BE0009AFF00210F20FCF796FF00214120FCF7DF
:104BF00092FF00214220FCF78EFF00214820FCF7A5
:104C00008AFF29464920FCF786FF00214A20FCF74D
:104C100082FF00214B20FCF77EFF4FF46F414420C0
:104C2000FCF779FF00214520FCF775FF2946462057
:104C3000FCF771FF31463020FCF76DFF394631201B
:104C4000FCF769FF39463220FCF765FF40F2025459
:104C500021463320FCF75FFF611D3420FCF75BFF2A
:104C600039463520FCF757FF39463620FCF753FF0D
:104C700021463720FCF74FFF40F2023421463A200C
:104C8000FCF749FF21463B20FCF745FF002123208C
:104C9000FCF741FF00212420FCF73DFF4FF40041C9
:104CA0002520FCF738FF00214F20FCF734FF0021BE
:104CB0004E20FCE300210846FCF72DFF2146012091
:104CC000FCF729FF49460220FCF725FF41F230019D
:104CD0000320FCF720FF00210420FCF71CFF40F21A
:104CE00002210820FCF717FF00210920FCF713FF21
:104CF00000210A20FCF70FFF01210C20FCF70BFF1D
:104D000000210D20FCF707FF00210F20FCF703FF17
:104D1000322004F0C8F940F201110720FCF7FBFE35
:104D2000322004F0C0F94FF486511020FCF7F3FE56
:104D300007211120FCF7EFFE4FF488742146122062
:104D4000FCF7E9FE4FF430611320FCF7E4FE00218C
:104D50002920FCF7E0FE44F210012B20FCF7DBFEDB
:104D600000215020FCF7D7FEEF215120FCF7D3FEA5
:104D700000215220FCF7CFFE29465320FCF7CBFE42
:104D800041466020FCF7C7FE01216120FCF7C3FE0D
:104D900000216A20FCF7BFFE00218020FCF7BBFE4B
:104DA00000218120FCF7B7FE00218220FCF7B3FE32
:104DB00000218320FCF7AFFE00218420FCF7ABFE2E
:104DC00000218520FCF7A7FE10219020FCF7A3FE10
:104DD00000219220FCF79FFE01219320FCF79BFE0F
:104DE00021469520FCF797FE00219720FCF793FEC3
:104DF00000219820FCF78FFE40F27311072058E73E
:104E000041F21401E720FCF786FE21460120FCF761
:104E100082FE4FF400710220FCF77DFE41F2380162
:104E20000320FCF778FE40F202210820FCF773FE15
:104E300000210920FCF76FFE00210A20FCF76BFE21
:104E400000210C20FCF767FE00210D20FCF763FE1B
:104E500000210F20FCF75FFE00211020FCF75BFE15
:104E600007211120FCF757FE00211220FCF753FE0A
:104E700000211320FCF74FFEC82004F014F941F282
:104E800090611020FCF747FE40F227211120FCF72B
:104E900042FE322004F007F90C211220FCF73BFE01
:104EA000322004F000F94FF400611320FCF733FEC8
:104EB00011212920FCF72FFE0B212B20FCF72BFEC4
:104EC000322004F0F0F800212020FCF724FE2946CF
:104ED0002120FCF720FE00213020FCF71CFE4FF4BF
:104EE000837421463120FCF716FE00213220FCF7A6
:104EF00012FE39463520FCF70EFE41F20A613620DB
:104F0000FCF709FE31463720FCF705FE2146382024
:104F1000FCF701FE31463920FCF7FDFD40F202416D
:104F20003C20FCF7F8FD40F60F413D20FCF7F3FD77
:104F300000215020FCF7EFFDEF215120FCF7EBFDA5
:104F400000215220FCF7E7FD29465320FCF7E3FD42
:104F500041466020FCF7DFFD01216120FCF7DBFD0D
:104F600000216A20FCF7D7FD00218020FCF7D3FD4B
:104F700000218120FCF7CFFD00218220FCF7CBFD32
:104F800000218320FCF7C7FD00218420FCF7C3FD2E
:104F900000218520FCF7BFFD10219020FCF7BBFD10
:104FA0004FF4C0619220FDE321460120FCF7B3FDE0
:104FB00049460220FCF7AFFD41F230010320FCF727
:104FC000AAFD00210420FCF7A6FD40F207210820DD
:104FD000FCF7A1FD00210920FCF79DFD00210A201E
:104FE00000E0FDE3FCF797FD00210C20FCF793FDAA
:104FF00000210D20FCF78FFD00210F20FCF78BFD19
:10500000142004F050F841F2B0611020FCF783FD49
:1050100001211120FCF77FFD01211720FCF77BFD0A
:105020004FF49C711220FCF776FD4FF400611320C1
:10503000FCF771FD09212920FCF76DFD09212A20CB
:10504000FCF769FD0021A420FCF765FD002150203C
:10505000FCF761FDEF215120FCF75DFD002152209E
:10506000FCF759FD29465320FCF755FD41466020C9
:10507000FCF751FD01216120FCF74DFD00216A2064
:10508000FCF749FD00218020FCF745FD002181202F
:10509000FCF741FD00218220FCF73DFD002183202B
:1050A000FCF739FD00218420FCF735FD0021852027
:1050B000FCF731FD13219020FCF72DFD00219220FB
:1050C000FCF729FD03219320FCF725FD4FF488719F
:1050D0009520FCF720FD40F273110720FCF71BFD23
:1050E00032200DE100210720FCF715FD322003F0EE
:1050F000DAFF4FF48E711220FCF70DFD0121A42080
:10510000FCF709FD0F210820FCF705FD082103E04D
:10511000F9E0F6E1BCE27FE30A20FCF7FCFC0821A1
:105120000D20FCF7F8FC31463020FCF7F4FC072199
:105130003120FCF7F0FC40F203613220FCF7EBFC7D
:1051400049463320FCF7E7FC40F202213420FCF70B
:10515000E2FC02213520FCF7DEFC41F60F7136201F
:10516000FCF7D9FC31463720FCF7D5FC002138206C
:10517000FCF7D1FC00213920FCF7CDFC31463A2068
:10518000FCF7C9FC00213B20FCF7C5FC07213C20B3
:10519000FCF7C1FC00213D20FCF7BDFC322003F0F0
:1051A00082FF01210720FCF7B6FC01211720FCF744
:1051B000B2FC322003F077FF4FF4BD511020FCF712
:1051C000AAFC40F217211120FCF7A5FC4FF48F71C7
:1051D0001220FCF7A0FC4FF470611320FCF79BFC3D
:1051E00000212A20FCF797FC0A212920FCF793FCD8
:1051F0004FF49F71122000E07EE1FCF78CFC00214F
:105200005020FCF788FCEF215120FCF784FC0021A2
:105210005220FCF780FC29465320FCF77CFC4146D9
:105220006020FCF778FC01216120FCF774FC002170
:105230006A20FCF770FC00218020FCF76CFC002148
:105240008120FCF768FC00218220FCF764FC00212F
:105250008320FCF760FC00218420FCF75CFC00212B
:105260008520FCF758FC13219020FCF754FC3946AC
:105270009220FCF750FC05219320FCF74CFC002108
:105280009520FCF748FC00219720FCF744FC002106
:105290009820FCF740FC21460120FCF73CFC4946E5
:1052A0000220FCF738FC41F238010320FCF733FC04
:1052B00000210420FCF72FFC00210C20FCF72BFC24
:1052C00000210F20FCF727FC00212020FCF723FC05
:1052D00000212120FCF71FFC21210720FCF71BFCEB
:1052E000142003F0E0FE61210720FCF714FC1420D9
:1052F00003F0D9FE40F273110720FCF70CFC1420D8
:1053000003F0D1FE7CE200210846FCF704FC0021FA
:105310000846FCF700FC00210846FCF7FCFB0021D6
:105320000846FCF7F8FB0121A420FCF7F4FB14204D
:1053300003F0B9FE464641466020FCF7ECFB40F224
:10534000022739460820FCF7E6FB4FF405713020B0
:10535000FCF7E1FB43F215713120FCF7DCFB40F276
:1053600004613220FCF7D7FB40F616613320FCF7CE
:10537000D2FB42F211213420FCF7CDFB4FF4A851AF
:105380003520FCF7C8FB48F207513620FCF7C3FB79
:1053900041F207413720FCF7BEFB41F203413820C0
:1053A000FCF7B9FB20213920FCF7B5FB1A2190202E
:1053B000FCF7B1FB00211020FCF7ADFB0721112009
:1053C000FCF7A9FB00211220FCF7A5FB002113200C
:1053D000FCF7A1FB142003F066FE4FF4E6611020F9
:1053E000FCF799FB40F237111120FCF794FB1420D5
:1053F00003F059FE4FF4DC711220FCF78CFB1420F3
:1054000003F051FE4FF470611320FCF784FB802100
:105410002A20FCF780FB48212920FCF77CFB142084
:1054200003F041FE21460120FCF775FB49460220AE
:10543000FCF771FB41F238010320FCF76CFB3946A5
:105440000820FCF768FB00210A20FCF764FB002120
:105450000C20FCF760FB00210D20FCF75CFB3021E9
:105460000E20FCF758FB00215020FCF754FBEF21E5
:105470005120FCF750FB00215220FCF74CFB294641
:105480005320FCF748FB31466020FCF744FB012128
:105490006120FCF740FB00216A20FCF73CFB112156
:1054A0009020FCF738FB4FF4C061922000E0A5E1AA
:1054B000FCF731FB40F202419320FCF72CFB022168
:1054C0009420FCF728FB142003F0EDFD01210720B8
:1054D000FCF721FB142003F0E6FD61210720FCF717
:1054E0001AFB40F273110720FCF715FB0021202066
:1054F000FCF711FB00212120FCF70DFB22210020ED
:105500007CE100210846FCF706FB00210846FCF779
:1055100002FB142003F0C7FD00210846FCF7FBFA4C
:1055200000210846FCF7F7FA00210846FCF7F3FAD9
:1055300000210846FCF7EFFA0121A420FCF7EBFA62
:10554000142003F0B0FD41466020FCF7E4FA40F679
:1055500006010820FCF7DFFA40F2037631463020DE
:10556000FCF7D9FA01213120FCF7D5FA04213220C9
:10557000FCF7D1FA4FF481713320FCF7CCFA3946AD
:105580003420FCF7C8FA40F203113520FCF7C3FAC7
:105590001F213620FCF7BFFA31463720FCF7BBFA53
:1055A00001213820FCF7B7FA04213920FCF7B3FABF
:1055B00015219020FCF7AFFA4FF482611020FCF720
:1055C000AAFA40F247211120FCF7A5FA4FF4DE7148
:1055D0001220FCF7A0FA4FF460611320FCF79BFA4D
:1055E000782003F060FD21460120FCF794FA4FF487
:1055F00000710220FCF78FFA41F230010320FCF722
:105600008AFA08210A20FCF786FA00210C20FCF710
:1056100082FA20210E20FCF77EFA00210F20FCF7F1
:105620007AFA00212020FCF776FA00212120FCF7ED
:1056300072FA3D212A20FCF76EFA142003F033FDA4
:105640002D212920FCF767FA00215020FCF763FA8E
:105650004DF2EF015120FCF75EFA00215220FCF7D9
:105660005AFA29465320FCF756FA00216120FCF72C
:1056700052FA00216A20FCF74EFA39469220FCF7D4
:105680004AFA05219320FCF746FA2146FFF7B6BBFC
:1056900001210020FCF73FFA0A2003F004FD41F24B
:1056A00028611020FCF737FA0E211220FCF733FA9C
:1056B00040F639211320FCF72EFA0A2003F0F3FC00
:1056C00040211120FCF727FA50211520FCF723FA7E
:1056D0000A2003F0E8FC1E211220FCF71CFA0A2025
:1056E00003F0E1FC4FF4B1511020FCF714FA42F63C
:1056F00039211320FCF70FFA0A2003F0D4FC2146CD
:105700000120FCF708FA39460220FCF704FA41F2BE
:1057100038010320FCF7FFF940F202210820FCF7D2
:10572000FAF908210A20FCF7F6F900213020FCF7ED
:10573000F2F940F202413120FCF7EDF94FF48371A8
:105740003220FCF7E8F940F203513320FCF7E3F98B
:105750004FF482713420FCF7DEF940F2013135203C
:10576000FCF7D9F931463620FCF7D5F940F205317E
:105770003720FCF7D0F94FF402713820FCF7CBF951
:1057800040F60B713920FCF7C6F902214120FCF7E5
:10579000C2F941466020FCF7BEF901216120FCF707
:1057A000BAF900E0DAE04FF404719020FCF7B3F9A5
:1057B0004FF485719220FCF7AEF904219320FCF799
:1057C000AAF92146A020FCF7A6F901210720FCF741
:1057D000A2F921210720FCF79EF92321072000E0F0
:1057E0000EE0FCF798F933210720FCF794F940F21A
:1057F00033110720FCF78FF90021A020FCF78BF96B
:105800000020FCF74AFCF749C1F884A15846FCF790
:105810009CFD1FB0BDE8F08F30211520FCF77BF90F
:1058200010219A20FCF777F920211120FCF773F959
:1058300043F228411020FCF76EF902211220FCF7F8
:105840006AF941F238011320FCF765F9282003F0CA
:105850002AFC12210846FCF75EF9282003F023FCFD
:1058600043F220411020FCF756F943F2380113208F
:10587000FCF751F9462003F016FC00213020FCF71C
:105880004AF940F202413120FCF745F940F2073174
:105890003220FCF740F94FF441713320FCF73BF91B
:1058A00004213420FCF737F940F201413520FCF7A0
:1058B00032F931463620FCF72EF940F20531372017
:1058C000FCF729F94FF4C26529463820FCF723F983
:1058D00029463920FCF71FF921460120FCF71BF966
:1058E00039460220FCF717F941F230010320FCF79A
:1058F00012F940F608010820FCF70DF908210A20EA
:10590000FCF709F941466020FCF705F90121612007
:10591000FCF701F94FF49F719020FCF7FCF8214649
:105920009220FCF7F8F821469320FCF7F4F84FF4A6
:105930004051A020FCF7EFF81021A320FCF7EBF872
:1059400001210720FCF7E7F821210720FCF7E3F805
:1059500023210720FCF7DFF833210720FCF7DBF8D1
:1059600040F2331192E62DE9F8439F4D1F468046E1
:10597000AB88089EA3F5D040043802D1A87901284D
:1059800007D0A2EB0800401C85B20C464FF0D84966
:1059900028E02B880846991A0024AC713A462A243C
:1059A000A3EB08036C812B27491E5B1EAF8189B2D4
:1059B0009BB20096FFF7D7FF0120A8716F81AC81E1
:1059C000BDE8F88321464046FCF7D1F8FCF7B8F86B
:1059D0000020494602E04E80401C80B2A842FAD323
:1059E000641CA4B2BC42EDD9EAE72DE9F047824637
:1059F000A2EB0A00401C0E4685B2981B401C87B2E1
:105A000000244FF0D849DDF8208014E0301981B22D
:105A10005046FCF7ACF8FCF793F80020494606E046
:105A200004FB050338F813204A80401C80B2A842CA
:105A3000F6D3641CA4B2BC42E8D3BDE8F0872DE9DC
:105A4000FE4F0026A2EB000882465F1A701E354604
:105A50008946B8F1000F02DD4FF0010102E003D1E9
:105A60004FF00001019102E0C8F100080190002F01
:105A700002DD4FF0010002E003D14FF00000009082
:105A800002E0C7F1000700904046B84501DD04463A
:105A900000E03C46601C4FF0000B029015E01FFA3E
:105AA00089F11FFA8AF0FCF787FA46443D44A64282
:105AB00002DD0199361B8A44A54202DD00992D1BA7
:105AC00089440BF101001FFA80FB02998B45E6DD4A
:105AD000BDE8FE8FF0B51C4615460E4607460B4640
